:100400000C948C020C94C70A0C94000B0C94AE084C
:100410000C9497090C94000B0C945A0A0C94000B42
:100420000C94000B0C94000B0C94000B0C94000B20
:100430000C94000B0C94000B0C94000B0C94000B10
:100440000C94000B0C94000B0C94000B0C94000B00
:100450000C94000B0C94000B0C94760A0C94000B7B
:100460000C94000B0C94000B0C94000B0C94000BE0
:100470000C94000B0C946A080C94000B0C94000B69
:100480000C94000B0C94000B0C94920A0C942D0A03
:100490000C94000B0C94000B0C94000B0C94000BB0
:1004A0000C94000B0C94000B0C94000B0C94000BA0
:1004B0000C94680A0C94840A0C94000B0C94000BA6
:1004C0000C94000B0C94000B0C94000B0C94000B80
:1004D0000C94000B0C94000B0C94000B0C94000B70
:1004E0000C94000B0C94000B400042068042064224
:1004F0001500160C42154219804219421D00161BA8
:10050000421D422B80422B422C0006BB422C422D26
:1005100080422D422E00161F11241FBECFEFCDBFEB
:10052000DFE7DEBFE8EEF4E045E019C0B791A79140
:1005300037912791079107FD0EC097918791EF01A1
:10054000F92FE82F0BBF07900D92A217B307D9F729
:10055000FE011BBE04C01D92A217B307E1F7E831EC
:10056000F40721F70E9453070C94B602F894FFCFCA
:100570000A0D55706461746564204352433A20301B
:10058000782530386C580A000A0D53746F72656410
:1005900020557064617465642043524320696E2065
:1005A000466C617368000A0D53746172746564204F
:1005B000435243205363616E2E2E000D435243205D
:1005C0006D61746368656420776974682050726532
:1005D0002D63616C63756C617465642043524320C4
:1005E00030782530346C580A000D4352432064693A
:1005F00064206E6F74206D6174636820776974681D
:10060000205072652D63616C63756C617465642044
:100610004352432030782530346C580A000A0D309C
:100620007825303258206973207772697474656E4A
:10063000206174203078256C5820696E204150501C
:10064000444154412073656374696F6E206F662066
:10065000466C6173680A000D53797374656D2049A7
:100660006E697469616C697A6564000A0D5072651F
:100670002D63616C63756C61746564204352432023
:10068000726561642066726F6D20466C61736820CC
:10069000697320636F6D706C657465000D507265D1
:1006A0002D63616C63756C617465642043524320F3
:0B06B0003A2030782530346C580A00E6
:0106BB00FF3F
:1006BC002F923F924F926F927F928F929F92AF9216
:1006CC00BF92CF92DF92EF92FF920F931F93CF9333
:1006DC00DF93CDB7DEB76297CDBFDEBF6C013A01B9
:1006EC00862E7901FC0117821086848181FFEBC173
:1006FC009E012F5F3F4F2C873D87C901A0E8888B57
:10070C00998BAA8B9FE3992EF301582D0E94D10A45
:10071C00862F662309F4D3C1482D93012F5F3F4FD9
:10072C004F4F653219F03901842E0BC0F901542F4B
:10073C000E94D10A862F92E0690E711C811C6532D1
:10074C0029F4B60190E00E94ED08DECFB12C00E058
:10075C0010E01032A0F48B3269F030F4803259F092
:10076C00833269F410612CC08D3239F0803339F446
:10077C00116026C01260146023C0186021C017FDE0
:10078C002AC090ED980F9A3078F416FF06C0AAE0B4
:10079C00BA9E900D1124B92E13C0EAE00E9F900D55
:1007AC001124092F10620CC08E3221F416FD87C162
:1007BC00106406C08C3611F4106802C0883659F4E7
:1007CC00F301582D0E94D10A862FFFEF6F1A7F0A72
:1007DC008F0A6111BECF982F9F7D9554933028F4CA
:1007EC0024E0E20EF11C99820FC0833631F083377E
:1007FC0091F0833509F064C027C0F70180818983AB
:10080C0097012E5F3F4F7901288839884A88AA249E
:10081C00A394B12C17C0A7014D5F5F4F4E875F8724
:10082C00F70120803180428016FF03C04B2D50E031
:10083C0002C04FEF5FEF842DB1010E94E6095C010D
:10084C00EE84FF841F7718C097012D5F3F4F2E87D2
:10085C003F87F70120803180428016FF03C04B2D6B
:10086C0050E002C04FEF5FEF842DB1010E94E6090A
:10087C005C011068EE84FF8413FD1EC0802F90E095
:10088C00A816B906C8F4B60180E290E00E94ED0803
:10089C000150F4CFF101542D0E94D10A862FFFEFA5
:1008AC002F1A3F0A4F0AB60190E00E94ED08011181
:1008BC00015021E0A21AB108A114B10459F7F5C0F6
:1008CC00843611F0893671F5F70117FF08C0608185
:1008DC0071818281938197012C5F3F4F09C06081A8
:1008EC007181072E000C880B990B97012E5F3F4FDF
:1008FC0079011F76312E97FF0AC0909580957095DF
:10090C0061957F4F8F4F9F4F312F3068332E2AE0E8
:10091C0030E0AE014F5F5F4F0E94C307482E4C85FD
:10092C00441A4AC0853729F41F7EA12E2AE030E0F4
:10093C0025C0512F597FA52E8F36C1F018F488355C
:10094C0079F0BDC0803719F0883721F0B8C0852FF9
:10095C008061A82EA4FE0DC09A2D9460A92E09C00A
:10096C0014FF0AC0A52FA660AA2E06C028E030E00E
:10097C0005C020E130E002C020E132E0F701A7FE23
:10098C0008C06081718182819381A7014C5F5F4FA8
:10099C0007C06081718180E090E0A7014E5F5F4FDE
:1009AC007A01AE014F5F5F4F0E94C307482E5C85F2
:1009BC00451A8A2D8F77382E36FE0DC0932D9E7FCB
:1009CC00A92E4B1458F434FE0BC032FC09C0A32DD5
:1009DC00AE7EAA2E05C0142DA32C03C0142D01C06D
:1009EC001B2DA4FE0EC0FE01E40DF11D8081803391
:1009FC0021F4EA2DE97EAE2E08C0A2FE05C01E5FD2
:100A0C0004C08A2D867809F01F5FA3FC11C0A0FEDC
:100A1C0006C0101788F4040DB02EB11A0EC01017B2
:100A2C0060F4B60180E290E00E94ED081F5FF7CF02
:100A3C00101718F4011B02C0B42C00E0A4FE10C067
:100A4C00B60180E390E00E94ED08A2FE17C0A1FC65
:100A5C0003C088E790E002C088E590E0B6010CC0C6
:100A6C008A2D867859F0A1FE02C08BE201C080E28B
:100A7C00A7FC8DE2B60190E00E94ED084B1438F40F
:100A8C00B60180E390E00E94ED08BA94F7CF4A9447
:100A9C00E1E0F0E0EC0FFD1FE40DF11D8081B601EB
:100AAC0090E00E94ED084110F2CF002309F42CCE07
:100ABC00B60180E290E00E94ED080150F6CFF601FD
:100ACC008781908502C08FEF9FEF6296CDBFDEBF0E
:100ADC00DF91CF911F910F91FF90EF90DF90CF900E
:100AEC00BF90AF909F908F907F906F904F903F9062
:040AFC002F9008959A
:100B00000F931F93CF93DF930E94600940E054E05E
:100B1000FA01108220E234E0F901108280E494E0CE
:100B200061E4FC016083C0E6D4E01882A0E8B4E090
:100B30001C9200EA14E0F8011082FA011482F90113
:100B4000148260E4FC0164831C8214961C92149746
:100B5000F8011482FA01108A118A128A138A148AFF
:100B6000158A168A178AF901108A118A128A138A3D
:100B7000148A158A168A178AFC01108A118A128A29
:100B8000138A148A158A168A6AE0678B188A198A6A
:100B90001A8A1B8A1C8A1D8A1E8A1F8A50961C92DA
:100BA000509751961C92519752961C925297539679
:100BB0001C92539754961C92549755961C92559795
:100BC00056961C92569757961C925797F801108A82
:100BD000118A128A138A148A158A168A178AFA01C8
:100BE0001386168615861486F901138616861586D1
:100BF0001486FC0113861686158614861B861E86AF
:100C00001D861C861B961C921B971E961C921E9777
:100C10001D961C921D971C961C92F8011386168631
:100C200015861486E0EEF5E011861182108214829A
:100C300082E08683178210861582128213821286C2
:100C400082E09BE08093294290932A4283E09BE0DC
:100C5000809327429093284284E09BE08093254232
:100C60009093264285E09BE0809323429093244218
:0A0C7000DF91CF911F910F910895BD
:100C7A008F929F92AF92BF92CF92DF92EF92FF92A2
:100C8A000F931F93CF93DF938A016B017C01CC24CE
:100C9A00E894D0F84B015C0131E09322AA24BB24EA
:100CAA0081149104A104B10409F475C0EA0180E039
:100CBA0090E0DC0140E050E001C0AF018C0D9D1DC9
:100CCA00AE1DBF1DABBFFC0187918993FA01319616
:100CDA00CF01A0E0B0E088159905AA05BB0568F325
:100CEA004E5F5F4FE00FF11F2083411582E05807E6
:100CFA0098F4E801C40FD51FD701C601840F951FC8
:100D0A00A11DB11DABBFFC01879189934F5F5F4F56
:100D1A004115E2E05E0780F3E0E0F0E18281837052
:100D2A00E9F748E06DE980E090E10E94EF0A40E0CF
:100D3A0050E0C701B6010E943C0AE0E0F0E182817E
:100D4A008370E9F740E06DE980E090E10E94EF0AE4
:100D5A0042E06DE980E090E10E94EF0AE8011E5F3F
:100D6A0049915991C701B6010E943C0AF2E0CF0E9F
:100D7A00D11CE11CF11C0C171D0791F740E06DE92D
:100D8A0080E090E10E94EF0A90910210907781E052
:100D9A0039F480E005C0FA01208341E050E0A9CF90
:100DAA00DF91CF911F910F91FF90EF90DF90CF903D
:0A0DBA00BF90AF909F908F900895B6
:100DC40080912D42813009F041C010922D420E9441
:100DD400A00A8091220181FF1DC080E48093450414
:100DE400809118428F93809117428F93809116427D
:100DF4008F93809115428F938BEB95E0A0E0AF9396
:100E04009F938F930E94180A8DB79EB707968DBF44
:100E14009EBF1CC080E480934604809118428F9347
:100E2400809117428F93809116428F93809115423F
:100E34008F9389EE95E0A0E0AF939F938F930E94E8
:100E4400180A8DB79EB707968DBF9EBF80912C421E
:100E5400813031F510922C4220912B422095209321
:100E64002B4246E050E461E07CEF81E090E00E9498
:100E74003D061F9281E08F939CEF9F938F93809107
:100E84002B421F928F938DE196E0A0E0AF939F9346
:100E94008F930E94180A8DB79EB709968DBF9EBF87
:020EA4000895AF
:100EA6000E944B0A67E576E080E00E94210888EF01
:100EB6009AE080931D4290931E428CEF9AE00E9426
:100EC600EA0A6091194270911A4280911B429091F0
:100ED6001C420E94F40A90E0A0E0B0E08093154224
:100EE60090931642A0931742B093184280911942EC
:100EF60090911A42A0911B42B0911C42BC01CD01B7
:100F060061507109810991096093194270931A42DF
:100F160080931B4290931C420E94F40A4091154212
:100F2600509116426091174270911842582B409387
:100F360015425093164260931742709318426BE61F
:100F460076E080E00E942108809118428F9380917C
:100F560017428F93809116428F93809115428F93FB
:100F66008CE996E0A0E0AF939F938F930E94180AB6
:100F76008DB79EB707968DBF9EBF0E94E206FDCF36
:100F8600FA01AA27283051F1203181F1E8946F93B4
:100F96006E7F6E5F7F4F8F4F9F4FAF4FB1E03ED05A
:100FA600B4E03CD0670F781F891F9A1FA11D680FF8
:100FB600791F8A1F911DA11D6A0F711D811D911D2B
:100FC600A11D20D009F468943F912AE0269F1124A0
:100FD6003019305D3193DEF6CF010895462F477004
:100FE600405D4193B3E00FD0C9F7F6CF462F4F705F
:100FF600405D4A3318F0495D31FD4052419302D0BD
:10100600A9F7EACFB4E0A695979587957795679562
:10101600BA95C9F700976105710508959B01AC0162
:101026000A2E06945795479537952795BA95C9F789
:0C103600620F731F841F951FA01D0895FA
:10104200CF92DF92EF920F931F93CF93DF93E091B2
:101052000240F0910340948191FF2EC06B01E82E73
:10106200D0E0C0E000E010E4F6015E2D0E94D10A5B
:10107200862F6623A1F0D80112966D917C91139769
:10108200DB011996ED91FC911A970995892B11F0C4
:10109200DFEFCFEFBFEFCB1ADB0AEB0AE5CF6091B0
:1010A200024070910340DB011996ED91FC911A9771
:1010B2008AE00995892B19F08FEF9FEF02C08D2FDF
:1010C2009C2FDF91CF911F910F91EF90DF90CF90E6
:0210D20008957F
:1010D4001F920F920FB60F9211240BB60F922F93FB
:1010E4003F934F935F936F937F938F939F93AF93AC
:1010F400BF93EF93FF93599B05C0E0912942F09170
:101104002A420995589B05C0E0912742F091284254
:1011140009955F9B05C0E0912542F091264209950F
:101124005E9B05C0E0912342F091244209958FEF24
:101134008BB9FF91EF91BF91AF919F918F917F9167
:101144006F915F914F913F912F910F900BBE0F9034
:081154000FBE0F901F901895CB
:10115C001F920F920FB60F9211240BB60F922F9372
:10116C003F934F935F936F937F938F939F93AF9323
:10117C00BF93EF93FF938091430180FF07C0E091F1
:10118C002142F0912242309709F009958091430158
:10119C0081FF07C0E0911F42F0912042309709F087
:1011AC00099583E080934301FF91EF91BF91AF913B
:1011BC009F918F917F916F915F914F913F912F9163
:0E11CC000F900BBE0F900FBE0F901F90189546
:1011DA000F931F93CF93DF93FB01248121FD03C05B
:1011EA008FEF9FEF2CC022FF16C0478150852581C3
:1011FA0036814217530744F4A081B1819D012F5FC4
:10120A003F4F208331838C93278130852F5F3F4F57
:10121A002783308714C08B01EC01FB010184F2851E
:10122A00E02D0995892BE1F6D80117968D919C91AD
:10123A001897019617968D939C931897CE01DF9174
:08124A00CF911F910F9108954F
:1012520040E068ED80E690E00E94EF0A41E168ED2F
:1012620081E690E00E94EF0A40E068ED82E690E0BD
:101272000E94EF0A40E068ED83E690E00E94EF0AE8
:101282004CE068ED88E690E00E94EF0A40E068EDED
:1012920089E690E00E94EF0A40E068ED88E790E07E
:1012A2000E94EF0A40E068ED80E790E00E94EF0ABA
:0E12B20040E068ED8CE790E00E94EF0A08959E
:1012C000E0E1F4E0808188608193E83184E0F80710
:1012D000C9F7E0E3F4E0808188608193E83384E03B
:1012E000F807C9F7E0E5F4E0808188608193E8358C
:1012F00084E0F807C9F7E0E7F4E080818860819333
:10130000E83784E0F807C9F7E0E9F4E08081886015
:101310008193E83984E0F807C9F7E0EBF4E08081D5
:0E13200088608193E83B84E0F807C9F70895E0
:10132E001F920F920FB60F9211240BB60F922F939E
:10133E003F934F935F936F937F938F939F93AF934F
:10134E00BF93EF93FF93E0911D42F0911E423097B1
:10135E0009F0099581E080935301FF91EF91BF91C0
:10136E00AF919F918F917F916F915F914F913F912F
:10137E002F910F900BBE0F900FBE0F901F901895D0
:10138E00E0E4F1E081818111FDCFE0E4F1E08FEF47
:10139E0093E084879587108611868FEF97E082877A
:1013AE00938781E08783828381898111FDCFE0E479
:0E13BE00F1E081E0828B81E6808B80E0089573
:1013CC00CF92DF92EF926B01E82E9A01A82FCB01FE
:1013DC002115310531F48C199D09EF90DF90CF90D8
:1013EC000895FC015A2F0E94D10A6623A1F301969D
:0813FC00A11D21503109ECCFC5
:10140400E0E2F8E086E191E080879187158280EC44
:10141400868383E08783138614861686158686E082
:0C14240092E480930240909303400895EE
:10143000CF93DF93CDB7DEB79E012B5F3F4FF9010E
:101440004191519161919F0180910240909103409F
:0A1450000E945E03DF91CF91089522
:10145A001F920F920FB60F9211248F9381E08093FF
:0E146A0004108F910F900FBE0F901F901895D9
:101478000F9200903B000F920A01FB0180933B0002
:0E148800E89511240F9000923B000F900895FC
:101496000E94AE0A0E9429090E94020A0E94D80AE6
:0E14A6000E94C7090E94DE0A0E948005089578
:1014B4001F920F920FB60F9211248F938FEF83B95F
:0C14C4008F910F900FBE0F901F90189595
:1014D0001F920F920FB60F9211248F938FEF87B93F
:0C14E0008F910F900FBE0F901F90189579
:1014EC001F920F920FB60F9211248F938FEF8FB91B
:0C14FC008F910F900FBE0F901F9018955D
:101508001F920F920FB60F9211248F938FEF83BB08
:0C1518008F910F900FBE0F901F90189540
:101524001F920F920FB60F9211248F938FEF87BBE8
:0C1534008F910F900FBE0F901F90189524
:1015400066EA75E080E00E94210881E08093200136
:0C155000E0E2F1E0828180FDFDCF089513
:10155C0040E068ED80E191E00E94EF0AE0E1F1E00B
:0A156C0012821382789480E0089543
:10157600CF93C82F0E94E40A8823E1F3C093220880
:0815860080E090E0CF91089590
:10158E001F920F920FB60F9211240F900FBE0F9055
:04159E001F901895ED
:0E15A20057FD03C05BBF6791089560810895F7
:0C15B000E0E2F1E01182108280E008957A
:0C15BC00E0E0F0E11182138280E008956D
:0C15C8008091240885FB882780F9089595
:0A15D400809325429093264208956B
:0A15DE001BBEFC0164BF40830895AA
:0815E8008BBFFB018791089500
:0815F00081E080932D42089573
:0815F80081E080932C4208956C
:041600000C94000244
:02160400089547
:02160600089545
:02160800089543
:02160A00089541
:0F160C00000000000200000000BB0A0000000008
:04161B00FFFF0100CC
:01161F0001C9
:02000004008278
:0900000000000000000000FE02F7
:0400000300000400F5
:00000001FF
